:020000040000FA
:0400000013EF00F00A
:0600080030822BED06F032
:100018003080E0CF07F007C0E0FF3090100010EF0D
:1000280006F0000E166E2904D8A41DEF00F01FEF8D
:1000380000F021EF00F0162A29682804D8A427EF39
:1000480000F029EF00F02BEF00F0162A28682704AB
:10005800D8A431EF00F033EF00F035EF00F0162AA6
:1000680027682604D8A43BEF00F03DEF00F03FEFEF
:1000780000F0162A26682504D8A445EF00F047EFBB
:1000880000F049EF00F0162A2568010E16644FEFBC
:1000980000F051EF00F089EF00F02468010E1E6EA9
:1000A80089EF00F072EC06F0B5EF00F085A05FEF85
:1000B80000F061EF00F056EF00F0010E196EB5EF99
:1000C80000F085A26AEF00F06CEF00F056EF00F048
:1000D80061EF00F085A473EF00F075EF00F056EFC4
:1000E80000F061EF00F085A67CEF00F07EEF00F0F5
:1000F80056EF00F061EF00F085A885EF00F087EF7C
:1001080000F056EF00F061EF00F02450146E156A0D
:100118001550000AD8B497EF00F0FF0AD8B4AEEF34
:1001280000F0B5EF00F01450000AD8B45AEF00F010
:10013800010AD8B465EF00F0030AD8B46EEF00F0F6
:10014800010AD8B477EF00F0070AD8B480EF00F0BE
:10015800B5EF00F01450FF0AD8B456EF00F0B5EF31
:1001680000F0050E246E9CEF01F04D0E66EC06F0D3
:10017800010E1B6EB9EC03F01A2A010E2C6EC9EFA2
:1001880001F01904D8A4CBEF00F0CDEF00F0C9EFCF
:1001980001F01E50D8A4D3EF00F0D5EF00F0D9EF4E
:1001A80000F072EC06F0DBEF00F0000E1E6E050E9C
:1001B8001A60E1EF00F0E3EF00F0E7EF00F059EC30
:1001C80006F0B9EC03F0040E1A64EDEF00F0EFEF5F
:1001D80000F0F1EF00F059EC06F01A2A0B0E1A188D
:1001E800D8A4F9EF00F0FBEF00F0FDEF00F0020EED
:1001F8001B6E4D0E66EC06F0C9EF01F0000E1A6E8C
:100208003D0E66EC06F0030E1B6EB9EC03F01A2ADD
:10021800020E2C6EC9EF01F01904D8A416EF01F0F4
:1002280018EF01F0C9EF01F01E50D8A41EEF01F03D
:1002380020EF01F024EF01F072EC06F026EF01F058
:10024800000E1E6E0A0E1A602CEF01F02EEF01F060
:1002580032EF01F059EC06F0B9EC03F0090E1A641C
:1002680038EF01F03AEF01F03CEF01F059EC06F0FD
:100278001A2A100E1A18D8A444EF01F046EF01F01C
:1002880048EF01F0040E1B6E3D0E66EC06F0C9EF58
:1002980001F0000E1A6E2E0E66EC06F0050E1B6EAF
:1002A800B9EC03F01A2A030E2C6EC9EF01F01904F9
:1002B800D8A461EF01F063EF01F0C9EF01F01E501F
:1002C800D8A469EF01F06BEF01F06FEF01F072EC69
:1002D80006F071EF01F0000E1E6E0F0E1A6077EF38
:1002E80001F079EF01F07DEF01F059EC06F0B9EC7F
:1002F80003F00E0E1A6483EF01F085EF01F087EF2B
:1003080001F059EC06F01A2A150E1A18D8A48FEF26
:1003180001F091EF01F093EF01F0060E1B6E2E0E27
:1003280066EC06F0C9EF01F087EC06F0C9EF01F0C2
:100338001B50146E156A1550000AD8B4A6EF01F0C8
:10034800C9EF01F01450000AD8B4B9EF00F0010A5F
:10035800D8B4C5EF00F0030AD8B402EF01F0010ADF
:10036800D8B410EF01F0070AD8B44DEF01F0010A34
:10037800D8B45BEF01F0030AD8B498EF01F0010A92
:10038800D8B498EF01F0C9EF01F01200BEEF02F007
:1003980022B0D1EF01F0D3EF01F0DAEF01F0000E57
:1003A800086E2B506BEC04F0EBEF02F0030E086EB6
:1003B8002C506BEC04F0EBEF02F022B0E6EF01F00A
:1003C800E8EF01F0EFEF01F0000E086E2B506BEC38
:1003D80004F0EBEF02F0030E086E2C506BEC04F007
:1003E800EBEF02F022B0FBEF01F0FDEF01F004EFBC
:1003F80002F0000E086E2B506BEC04F0EBEF02F0ED
:10040800030E086E2C506BEC04F0EBEF02F022B0F8
:1004180010EF02F012EF02F019EF02F0000E086E72
:100428002B506BEC04F0EBEF02F0030E086E2C502F
:100438006BEC04F0EBEF02F022B025EF02F027EFAF
:1004480002F02EEF02F0000E086E2B506BEC04F059
:10045800EBEF02F0030E086E2C506BEC04F0EBEFA0
:1004680002F022B03AEF02F03CEF02F043EF02F064
:10047800000E086E2B506BEC04F0EBEF02F0030E4D
:10048800086E2C506BEC04F0EBEF02F022C008F081
:10049800096A000E0B6E030E0A6E19EC05F008507F
:1004A8000910D8A45AEF02F05CEF02F063EF02F0F3
:1004B800000E086E0B0E6BEC04F0EBEF02F022C09E
:1004C80008F0096A000E0B6E030E0A6E19EC05F0AF
:1004D80008040910D8A473EF02F075EF02F07CEF5E
:1004E80002F0010E086E0C0E6BEC04F0EBEF02F05C
:1004F800020E086E0D0E6BEC04F0EBEF02F022C05A
:100508000EF0030E0E16D8A48CEF02F08EEF02F058
:1005180095EF02F0000E086E0A0E6BEC04F0EBEF9C
:1005280002F02250030BE806D8A49DEF02F09FEFDB
:1005380002F0A6EF02F0010E086E000E6BEC04F05C
:10054800EBEF02F02250030B020AD8A4AEEF02F040
:10055800B0EF02F0B7EF02F0020E086E050E6BEC7A
:1005680004F0EBEF02F0030E086E0B0E6BEC04F0D8
:10057800EBEF02F01B500E6E0F6A0F50000AD8B452
:10058800C8EF02F0EBEF02F00E50000AD8B4CCEF3F
:1005980001F0010AD8B4E1EF01F0030AD8B4F6EF8C
:1005A80001F0010AD8B40BEF02F0070AD8B420EF23
:1005B80002F0010AD8B435EF02F0030AD8B44AEFC2
:1005C80002F0010AD8B483EF02F0EBEF02F0120058
:1005D8002150D8B4F2EF02F0F4EF02F0FCEF02F091
:1005E8002050D8B4FAEF02F0FCEF02F022EF03F04B
:1005F8001F50D8B402EF03F004EF03F017EF03F035
:1006080082B009EF03F00BEF03F022EF03F0000EC6
:100618001F6E010E216E000E206E000E946E000EED
:10062800826E22EF03F082A01CEF03F01EEF03F0AE
:1006380022EF03F0010E1F6E000E1B6E2950D8A486
:1006480028EF03F02AEF03F037EF03F086B02FEF1F
:1006580003F031EF03F040EF03F0010E296E000EB6
:10066800246E40EF03F086A03CEF03F03EEF03F06A
:1006780040EF03F0000E296E2850D8A446EF03F08F
:1006880048EF03F055EF03F086B24DEF03F04FEF5C
:1006980003F05EEF03F0010E286E010E246E5EEF8C
:1006A80003F086A25AEF03F05CEF03F05EEF03F06D
:1006B800000E286E2750D8A464EF03F066EF03F00D
:1006C80073EF03F086B46BEF03F06DEF03F07CEF8C
:1006D80003F0010E276E020E246E7CEF03F086A451
:1006E80078EF03F07AEF03F07CEF03F0000E276E4B
:1006F8002650D8A482EF03F084EF03F091EF03F0C3
:1007080086B689EF03F08BEF03F09AEF03F0010E42
:10071800266E030E246E9AEF03F086A696EF03F07A
:1007280098EF03F09AEF03F0000E266E2550D8A438
:10073800A0EF03F0A2EF03F0AFEF03F086B8A7EF46
:1007480003F0A9EF03F0B8EF03F0010E256E040ED5
:10075800246EB8EF03F086A8B4EF03F0B6EF03F009
:10076800B8EF03F0000E256E1200000E806E1D50CB
:10077800D8A4C1EF03F0C3EF03F0C9EF03F0CFCF64
:100788001CF0CECF23F0010E1D6E1D04D8A4CFEFB0
:1007980003F0D1EF03F06AEF04F02350070B106E5B
:1007A80010C008F0096A000E0B6E050E0A6E19ECEF
:1007B80005F00850106E010E0F6E000E0E6EE9EF78
:1007C80003F00F500F240F6E0E2A10500E5CD8A0A5
:1007D800F0EF03F0F2EF03F0E5EF03F00FC080FF56
:1007E8002A04D8A4FAEF03F0FCEF03F012EF04F0A8
:1007F800CE50010B126ECF50010B136E000E1C6E03
:10080800000E236E1240800B126E1340800B136E85
:1008180023501210236E1C5013101C6E020E2A183F
:10082800D8A419EF04F01BEF04F03EEF04F0030E18
:10083800116E36EF04F0CE50010B126ECF50010B43
:10084800136E000E1C6E000E236E1240800B126E8B
:100858001340800B136E23501210236E1C5013107C
:100868001C6E11061150D8A43CEF04F03EEF04F0C2
:100878001FEF04F0030E2A18D8A445EF04F047EF41
:1008880004F06AEF04F0050E116E62EF04F0CE502A
:10089800010B126ECF50010B136E000E1C6E000E72
:1008A800236E1240800B126E1340800B136E235080
:1008B8001210236E1C5013101C6E11061150D8A470
:1008C80068EF04F06AEF04F04BEF04F012000B6ECF
:1008D800A6EF04F03F0E886EFBEF04F0060E886E5C
:1008E800FBEF04F05B0E886EFBEF04F04F0E886E92
:1008F800FBEF04F0660E886EFBEF04F06D0E886E59
:10090800FBEF04F07D0E886EFBEF04F0070E886E97
:10091800FBEF04F07F0E886EFBEF04F06F0E886E1D
:10092800FBEF04F0380E886EFBEF04F0790E886E4A
:10093800FBEF04F0540E886EFBEF04F05E0E886E39
:10094800FBEF04F00B50096E0A6A0A50000AD8B48B
:10095800B0EF04F0FBEF04F00950000AD8B46EEFD2
:1009680004F0010AD8B472EF04F0030AD8B476EFA1
:1009780004F0010AD8B47AEF04F0070AD8B47EEF7D
:1009880004F0010AD8B482EF04F0030AD8B486EF61
:1009980004F0010AD8B48AEF04F00F0AD8B48EEF35
:1009A80004F0010AD8B492EF04F0030AD8B496EF21
:1009B80004F0010AD8B49AEF04F0070AD8B49EEFFD
:1009C80004F0010AD8B4A2EF04F0FBEF04F0010E22
:1009D800876E18EF05F0020E876E18EF05F0040E0B
:1009E800876E18EF05F0080E876E18EF05F00850AF
:1009F800096E0A6A0A50000AD8B405EF05F018EF24
:100A080005F00950000AD8B4EBEF04F0010AD8B495
:100A1800EFEF04F0030AD8B4F3EF04F0010AD8B4F6
:100A2800F7EF04F018EF05F01200000E0D6E09BE86
:100A380022EF05F020EF05F028EF05F0086C091EFD
:100A4800D8B0092A010E0D6E0BBE2FEF05F02DEF61
:100A580005F033EF05F00A6C0B1ED8B00B2A0A50CC
:100A68000B10D8B43AEF05F03CEF05F060EF05F055
:100A7800010E0C6E44EF05F0D8900A360B360C2A9E
:100A88000BAE49EF05F04BEF05F040EF05F00A50CB
:100A9800085C0B500958D8A054EF05F056EF05F044
:100AA8005AEF05F00A50085E0B50095AD8900B32DD
:100AB8000A320C2E4BEF05F00D50D8B466EF05F056
:100AC80068EF05F06CEF05F0086C091ED8B0092A2C
:100AD80008C008F009C009F01200000E066E02BE38
:100AE8007AEF05F078EF05F080EF05F0016C021E53
:100AF800D8B0022A010E066E04BE87EF05F085EF16
:100B080005F08BEF05F0036C041ED8B0042A0350DF
:100B18000410D8B492EF05F094EF05F0B8EF05F0A3
:100B2800010E056E9CEF05F0D89003360436052AB1
:100B380004AEA1EF05F0A3EF05F098EF05F0035020
:100B4800015C04500258D8A0ACEF05F0AEEF05F0F8
:100B5800B2EF05F00350015E0450025AD8900432F7
:100B68000332052EA3EF05F00650D8B4BEEF05F00A
:100B7800C0EF05F0C4EF05F0016C021ED8B0022AE0
:100B880001C001F002C002F0120043EC06F0EDECE7
:100B980005F07EEC06F095EC06F0ECEC02F0CAEC01
:100BA80001F02150D8B4DBEF05F0DDEF05F0D1EF0F
:100BB80005F02004D8A4E3EF05F0E5EF05F0E7EF32
:100BC80005F0D1EF05F015EC00F0D1EF05F013EFCB
:100BD80000F00F0EC16E000E926E000E936E010EA5
:100BE800946E000E956E000E966E000E976E1F0E98
:100BF800986E000E996E000E9A6E000E806E000EB2
:100C0800816E000E836E000E846E000E856E000EDF
:100C1800876E000E886E1200360EF66E0D0EF76E99
:100C2800000EF86E00EE2CF010EE04F00900F5CF7F
:100C3800EEFFE550E150FAE100EE17F00D0EEE6A16
:100C4800E806FDE1309030920001C9EF05F006009A
:100C5800F2A431EF06F033EF06F035EF06F08EEC34
:100C680006F0222A22C001F0026A000E046E0C0E61
:100C7800036E71EC05F00150226E30921100090EDE
:100C88002B6E010E2A6E000E216E000E206E000ED5
:100C98001F6E29682868276826682568000E226E56
:100CA800050E246E000E1E6E120084CF85FF83CFC2
:100CB80084FF82CF83FF81CF82FF80CF81FF000E28
:100CC800806E1200086E08C017F0000E196E000E34
:100CD800D76E000ED66EF294D58E12002B062B50CE
:100CE800D8A479EF06F07BEF06F07DEF06F0070E4B
:100CF8001B6E1200470ED56E000ED76E000ED66E14
:100D0800C90ECD6E1200010E206E000E216E000E6F
:100D18001D6E1200F294172E94EF06F0010E196E54
:100D28001200100EF26EF28AF28ED09E1200010F9F
:020D38000A05AA
:020000040020DA
:08000000FFFFFFFFFFFFFFFF00
:020000040030CA
:0E000000FF061F1EF38385FFFFC0FFE0FF40D9
:00000001FF
